{
  "contractName": "Presale",
  "abi": [
    {
      "inputs": [
        {
          "internalType": "contract IBEP20",
          "name": "_crssToken",
          "type": "address"
        },
        {
          "internalType": "contract IBEP20",
          "name": "_busd",
          "type": "address"
        },
        {
          "internalType": "address",
          "name": "_masterWallet",
          "type": "address"
        },
        {
          "internalType": "uint256",
          "name": "_startTimestamp",
          "type": "uint256"
        }
      ],
      "stateMutability": "nonpayable",
      "type": "constructor"
    },
    {
      "anonymous": false,
      "inputs": [
        {
          "indexed": true,
          "internalType": "address",
          "name": "depositUser",
          "type": "address"
        },
        {
          "indexed": false,
          "internalType": "uint256",
          "name": "amount",
          "type": "uint256"
        }
      ],
      "name": "Deposit",
      "type": "event"
    },
    {
      "anonymous": false,
      "inputs": [
        {
          "indexed": true,
          "internalType": "address",
          "name": "previousOwner",
          "type": "address"
        },
        {
          "indexed": true,
          "internalType": "address",
          "name": "newOwner",
          "type": "address"
        }
      ],
      "name": "OwnershipTransferred",
      "type": "event"
    },
    {
      "anonymous": false,
      "inputs": [
        {
          "indexed": true,
          "internalType": "address",
          "name": "user",
          "type": "address"
        },
        {
          "indexed": false,
          "internalType": "uint256",
          "name": "amount",
          "type": "uint256"
        }
      ],
      "name": "Withdraw",
      "type": "event"
    },
    {
      "inputs": [
        {
          "internalType": "address",
          "name": "",
          "type": "address"
        }
      ],
      "name": "deposits",
      "outputs": [
        {
          "internalType": "uint256",
          "name": "",
          "type": "uint256"
        }
      ],
      "stateMutability": "view",
      "type": "function",
      "constant": true
    },
    {
      "inputs": [],
      "name": "hardCapAmount",
      "outputs": [
        {
          "internalType": "uint256",
          "name": "",
          "type": "uint256"
        }
      ],
      "stateMutability": "view",
      "type": "function",
      "constant": true
    },
    {
      "inputs": [
        {
          "internalType": "uint256",
          "name": "",
          "type": "uint256"
        }
      ],
      "name": "investors",
      "outputs": [
        {
          "internalType": "address",
          "name": "",
          "type": "address"
        }
      ],
      "stateMutability": "view",
      "type": "function",
      "constant": true
    },
    {
      "inputs": [],
      "name": "masterWallet",
      "outputs": [
        {
          "internalType": "address",
          "name": "",
          "type": "address"
        }
      ],
      "stateMutability": "view",
      "type": "function",
      "constant": true
    },
    {
      "inputs": [],
      "name": "maxBusdPerWallet",
      "outputs": [
        {
          "internalType": "uint256",
          "name": "",
          "type": "uint256"
        }
      ],
      "stateMutability": "view",
      "type": "function",
      "constant": true
    },
    {
      "inputs": [],
      "name": "oneMonth",
      "outputs": [
        {
          "internalType": "uint256",
          "name": "",
          "type": "uint256"
        }
      ],
      "stateMutability": "view",
      "type": "function",
      "constant": true
    },
    {
      "inputs": [],
      "name": "owner",
      "outputs": [
        {
          "internalType": "address",
          "name": "",
          "type": "address"
        }
      ],
      "stateMutability": "view",
      "type": "function",
      "constant": true
    },
    {
      "inputs": [],
      "name": "renounceOwnership",
      "outputs": [],
      "stateMutability": "nonpayable",
      "type": "function"
    },
    {
      "inputs": [],
      "name": "softCapAmount",
      "outputs": [
        {
          "internalType": "uint256",
          "name": "",
          "type": "uint256"
        }
      ],
      "stateMutability": "view",
      "type": "function",
      "constant": true
    },
    {
      "inputs": [],
      "name": "startTimestamp",
      "outputs": [
        {
          "internalType": "uint256",
          "name": "",
          "type": "uint256"
        }
      ],
      "stateMutability": "view",
      "type": "function",
      "constant": true
    },
    {
      "inputs": [],
      "name": "tokenPrice",
      "outputs": [
        {
          "internalType": "uint256",
          "name": "",
          "type": "uint256"
        }
      ],
      "stateMutability": "view",
      "type": "function",
      "constant": true
    },
    {
      "inputs": [],
      "name": "totalDepositedBusdBalance",
      "outputs": [
        {
          "internalType": "uint256",
          "name": "",
          "type": "uint256"
        }
      ],
      "stateMutability": "view",
      "type": "function",
      "constant": true
    },
    {
      "inputs": [],
      "name": "totalRewardAmount",
      "outputs": [
        {
          "internalType": "uint256",
          "name": "",
          "type": "uint256"
        }
      ],
      "stateMutability": "view",
      "type": "function",
      "constant": true
    },
    {
      "inputs": [],
      "name": "totalWithdrawedAmount",
      "outputs": [
        {
          "internalType": "uint256",
          "name": "",
          "type": "uint256"
        }
      ],
      "stateMutability": "view",
      "type": "function",
      "constant": true
    },
    {
      "inputs": [
        {
          "internalType": "address",
          "name": "newOwner",
          "type": "address"
        }
      ],
      "name": "transferOwnership",
      "outputs": [],
      "stateMutability": "nonpayable",
      "type": "function"
    },
    {
      "inputs": [],
      "name": "unlockPerMonth",
      "outputs": [
        {
          "internalType": "uint256",
          "name": "",
          "type": "uint256"
        }
      ],
      "stateMutability": "view",
      "type": "function",
      "constant": true
    },
    {
      "inputs": [
        {
          "internalType": "address",
          "name": "",
          "type": "address"
        }
      ],
      "name": "userDetail",
      "outputs": [
        {
          "internalType": "uint256",
          "name": "depositTime",
          "type": "uint256"
        },
        {
          "internalType": "uint256",
          "name": "totalRewardAmount",
          "type": "uint256"
        },
        {
          "internalType": "uint256",
          "name": "withdrawAmount",
          "type": "uint256"
        },
        {
          "internalType": "uint256",
          "name": "depositAmount",
          "type": "uint256"
        }
      ],
      "stateMutability": "view",
      "type": "function",
      "constant": true
    },
    {
      "inputs": [],
      "name": "investorCount",
      "outputs": [
        {
          "internalType": "uint256",
          "name": "",
          "type": "uint256"
        }
      ],
      "stateMutability": "view",
      "type": "function",
      "constant": true
    },
    {
      "inputs": [],
      "name": "allInvestors",
      "outputs": [
        {
          "internalType": "address[]",
          "name": "",
          "type": "address[]"
        }
      ],
      "stateMutability": "view",
      "type": "function",
      "constant": true
    },
    {
      "inputs": [
        {
          "internalType": "uint256",
          "name": "_softCapAmount",
          "type": "uint256"
        }
      ],
      "name": "updateSoftCapAmount",
      "outputs": [],
      "stateMutability": "nonpayable",
      "type": "function"
    },
    {
      "inputs": [
        {
          "internalType": "uint256",
          "name": "_hardCapAmount",
          "type": "uint256"
        }
      ],
      "name": "updateHardCapAmount",
      "outputs": [],
      "stateMutability": "nonpayable",
      "type": "function"
    },
    {
      "inputs": [
        {
          "internalType": "uint256",
          "name": "_tokenPrice",
          "type": "uint256"
        }
      ],
      "name": "updateTokenPrice",
      "outputs": [],
      "stateMutability": "nonpayable",
      "type": "function"
    },
    {
      "inputs": [
        {
          "internalType": "uint256",
          "name": "_amount",
          "type": "uint256"
        }
      ],
      "name": "deposit",
      "outputs": [],
      "stateMutability": "payable",
      "type": "function",
      "payable": true
    },
    {
      "inputs": [
        {
          "internalType": "uint256",
          "name": "_amount",
          "type": "uint256"
        }
      ],
      "name": "withdrawToken",
      "outputs": [],
      "stateMutability": "nonpayable",
      "type": "function"
    },
    {
      "inputs": [
        {
          "internalType": "address",
          "name": "_user",
          "type": "address"
        }
      ],
      "name": "unlockedToken",
      "outputs": [
        {
          "internalType": "uint256",
          "name": "",
          "type": "uint256"
        }
      ],
      "stateMutability": "view",
      "type": "function",
      "constant": true
    }
  ],
  "bytecode": "0x6080604052690a968163f0a57b400000600c55692a5a058fc295ed000000600d556706f05b59d3b20000600e55683635c9adc5dea00000600f553480156200004657600080fd5b50604051620018e8380380620018e8833981810160405260808110156200006c57600080fd5b508051602082015160408301516060909301519192909160006200008f62000242565b600080546001600160a01b0319166001600160a01b0383169081178255604051929350917f8be0079c531659141344cd1fd0a4f28419497f9722a3daafe3b4186f6b6457e0908290a350600180556001600160a01b038416620001245760405162461bcd60e51b8152600401808060200182810382526031815260200180620018256031913960400191505060405180910390fd5b6001600160a01b0383166200016b5760405162461bcd60e51b8152600401808060200182810382526036815260200180620018566036913960400191505060405180910390fd5b6001600160a01b038216620001b25760405162461bcd60e51b8152600401808060200182810382526039815260200180620018af6039913960400191505060405180910390fd5b620001bc62000246565b811015620001fc5760405162461bcd60e51b81526004018080602001828103825260238152602001806200188c6023913960400191505060405180910390fd5b600280546001600160a01b03199081166001600160a01b0396871617909155600380548216948616949094179093556007805490931691909316179055600b556200024a565b3390565b4290565b6115cb806200025a6000396000f3fe6080604052600436106101665760003560e01c80639f87aedd116100d1578063d7e64c001161008a578063f2fde38b11610064578063f2fde38b14610477578063fb27961c146104aa578063fc0d0117146104bf578063fc7e286d146104d457610166565b8063d7e64c00146103e8578063e674ad02146103fd578063e6fd48bc1461046257610166565b80639f87aedd14610362578063b6b55f2514610377578063b88d54e314610394578063c8b18b5b146103a9578063c9ecd567146103be578063cf054fb2146103d357610166565b8063676c0d7711610123578063676c0d77146102b1578063715018a6146102db57806374cdab6e146102f05780637ff9b596146103235780638da5cb5b146103385780638e73064f1461034d57610166565b80630107980c1461016b57806313602eb2146101975780633feb5f2b146101c157806348d6df751461020757806350baa6221461022e5780635b10493f14610258575b600080fd5b34801561017757600080fd5b506101956004803603602081101561018e57600080fd5b5035610507565b005b3480156101a357600080fd5b50610195600480360360208110156101ba57600080fd5b50356105ad565b3480156101cd57600080fd5b506101eb600480360360208110156101e457600080fd5b5035610653565b604080516001600160a01b039092168252519081900360200190f35b34801561021357600080fd5b5061021c61067a565b60408051918252519081900360200190f35b34801561023a57600080fd5b506101956004803603602081101561025157600080fd5b5035610680565b34801561026457600080fd5b5061028b6004803603602081101561027b57600080fd5b50356001600160a01b03166107ba565b604080519485526020850193909352838301919091526060830152519081900360800190f35b3480156102bd57600080fd5b50610195600480360360208110156102d457600080fd5b50356107e1565b3480156102e757600080fd5b50610195610887565b3480156102fc57600080fd5b5061021c6004803603602081101561031357600080fd5b50356001600160a01b0316610933565b34801561032f57600080fd5b5061021c6109e7565b34801561034457600080fd5b506101eb6109ed565b34801561035957600080fd5b5061021c6109fc565b34801561036e57600080fd5b5061021c610a02565b6101956004803603602081101561038d57600080fd5b5035610a08565b3480156103a057600080fd5b5061021c610d44565b3480156103b557600080fd5b5061021c610d4a565b3480156103ca57600080fd5b5061021c610d51565b3480156103df57600080fd5b5061021c610d56565b3480156103f457600080fd5b5061021c610d5c565b34801561040957600080fd5b50610412610d62565b60408051602080825283518183015283519192839290830191858101910280838360005b8381101561044e578181015183820152602001610436565b505050509050019250505060405180910390f35b34801561046e57600080fd5b5061021c610dc4565b34801561048357600080fd5b506101956004803603602081101561049a57600080fd5b50356001600160a01b0316610dca565b3480156104b657600080fd5b5061021c610ecc565b3480156104cb57600080fd5b506101eb610ed2565b3480156104e057600080fd5b5061021c600480360360208110156104f757600080fd5b50356001600160a01b0316610ee1565b61050f610ef3565b6001600160a01b03166105206109ed565b6001600160a01b031614610569576040805162461bcd60e51b8152602060048201819052602482015260008051602061151c833981519152604482015290519081900360640190fd5b600081116105a85760405162461bcd60e51b81526004018080602001828103825260348152602001806114766034913960400191505060405180910390fd5b600c55565b6105b5610ef3565b6001600160a01b03166105c66109ed565b6001600160a01b03161461060f576040805162461bcd60e51b8152602060048201819052602482015260008051602061151c833981519152604482015290519081900360640190fd5b6000811161064e5760405162461bcd60e51b81526004018080602001828103825260348152602001806115626034913960400191505060405180910390fd5b600d55565b6006818154811061066057fe5b6000918252602090912001546001600160a01b0316905081565b60085481565b600061068b33610933565b9050818110156106cc5760405162461bcd60e51b81526004018080602001828103825260348152602001806113f26034913960400191505060405180910390fd5b33600090815260046020526040902060028101546106ea9084610ef7565b6002820155600a546106fc9084610ef7565b600a556002546040805163a9059cbb60e01b81523360048201526024810186905290516001600160a01b039092169163a9059cbb916044808201926020929091908290030181600087803b15801561075357600080fd5b505af1158015610767573d6000803e3d6000fd5b505050506040513d602081101561077d57600080fd5b505060408051848152905133917f884edad9ce6fa2440d8a54cc123490eb96d2768479d49ff9c7366125a9424364919081900360200190a2505050565b60046020526000908152604090208054600182015460028301546003909301549192909184565b6107e9610ef3565b6001600160a01b03166107fa6109ed565b6001600160a01b031614610843576040805162461bcd60e51b8152602060048201819052602482015260008051602061151c833981519152604482015290519081900360640190fd5b600081116108825760405162461bcd60e51b81526004018080602001828103825260348152602001806114766034913960400191505060405180910390fd5b600e55565b61088f610ef3565b6001600160a01b03166108a06109ed565b6001600160a01b0316146108e9576040805162461bcd60e51b8152602060048201819052602482015260008051602061151c833981519152604482015290519081900360640190fd5b600080546040516001600160a01b03909116907f8be0079c531659141344cd1fd0a4f28419497f9722a3daafe3b4186f6b6457e0908390a3600080546001600160a01b0319169055565b6001600160a01b03811660009081526004602052604081208054610955610f5a565b116109645760009150506109e2565b600061097c8260000154610976610f5a565b90610f5e565b9050600061098d8262278d00610fbb565b90506000600582106109a4575060018301546109cb565b6109c860646109c26109b7601486611022565b600188015490611022565b90610fbb565b90505b60028401546109db908290610f5e565b9450505050505b919050565b600e5481565b6000546001600160a01b031690565b60095481565b600f5481565b60026001541415610a60576040805162461bcd60e51b815260206004820152601f60248201527f5265656e7472616e637947756172643a207265656e7472616e742063616c6c00604482015290519081900360640190fd5b6002600155600b54610a70610f5a565b1015610aad5760405162461bcd60e51b815260040180806020018281038252602681526020018061153c6026913960400191505060405180910390fd5b600d5481600854011115610b08576040805162461bcd60e51b815260206004820152601e60248201527f6465706f7369742069732061626f76652068617264636170206c696d69740000604482015290519081900360640190fd5b336000908152600460205260409020600f54600382015483011115610b5e5760405162461bcd60e51b81526004018080602001828103825260418152602001806113b16041913960600191505060405180910390fd5b600e54600090610b7a906109c285670de0b6b3a7640000611022565b905080610c1d600954610976600a54600260009054906101000a90046001600160a01b03166001600160a01b03166370a08231306040518263ffffffff1660e01b815260040180826001600160a01b0316815260200191505060206040518083038186803b158015610beb57600080fd5b505afa158015610bff573d6000803e3d6000fd5b505050506040513d6020811015610c1557600080fd5b505190610ef7565b1015610c5a5760405162461bcd60e51b815260040180806020018281038252602b8152602001806114f1602b913960400191505060405180910390fd5b6003820154610ca657600680546001810182556000919091527ff652222313e28459528d920b65115c16c04f3efc82aaedc97be59f3f377c0d3f0180546001600160a01b031916331790555b610cae610f5a565b8255600382018054840190556001820154610cc99082610ef7565b6001830155600954610cdb9082610ef7565b6009556008805484019055600754600354610d05916001600160a01b03918216913391168661107b565b60408051848152905133917fe1fffcc4923d04b559f4d29a8bfc6cda04eb5b0d3c460751c2402c5c5cc9109c919081900360200190a250506001805550565b600a5481565b62278d0081565b601481565b600d5481565b60065490565b60606006805480602002602001604051908101604052809291908181526020018280548015610dba57602002820191906000526020600020905b81546001600160a01b03168152600190910190602001808311610d9c575b5050505050905090565b600b5481565b610dd2610ef3565b6001600160a01b0316610de36109ed565b6001600160a01b031614610e2c576040805162461bcd60e51b8152602060048201819052602482015260008051602061151c833981519152604482015290519081900360640190fd5b6001600160a01b038116610e715760405162461bcd60e51b81526004018080602001828103825260268152602001806114506026913960400191505060405180910390fd5b600080546040516001600160a01b03808516939216917f8be0079c531659141344cd1fd0a4f28419497f9722a3daafe3b4186f6b6457e091a3600080546001600160a01b0319166001600160a01b0392909216919091179055565b600c5481565b6007546001600160a01b031681565b60056020526000908152604090205481565b3390565b600082820183811015610f51576040805162461bcd60e51b815260206004820152601b60248201527f536166654d6174683a206164646974696f6e206f766572666c6f770000000000604482015290519081900360640190fd5b90505b92915050565b4290565b600082821115610fb5576040805162461bcd60e51b815260206004820152601e60248201527f536166654d6174683a207375627472616374696f6e206f766572666c6f770000604482015290519081900360640190fd5b50900390565b6000808211611011576040805162461bcd60e51b815260206004820152601a60248201527f536166654d6174683a206469766973696f6e206279207a65726f000000000000604482015290519081900360640190fd5b81838161101a57fe5b049392505050565b60008261103157506000610f54565b8282028284828161103e57fe5b0414610f515760405162461bcd60e51b81526004018080602001828103825260218152602001806114d06021913960400191505060405180910390fd5b604080516001600160a01b0380861660248301528416604482015260648082018490528251808303909101815260849091019091526020810180516001600160e01b03166323b872dd60e01b1790526110d59085906110db565b50505050565b6060611130826040518060400160405280602081526020017f5361666542455032303a206c6f772d6c6576656c2063616c6c206661696c6564815250856001600160a01b03166111919092919063ffffffff16565b80519091501561118c5780806020019051602081101561114f57600080fd5b505161118c5760405162461bcd60e51b815260040180806020018281038252602a815260200180611426602a913960400191505060405180910390fd5b505050565b60606111a084846000856111aa565b90505b9392505050565b6060824710156111eb5760405162461bcd60e51b81526004018080602001828103825260268152602001806114aa6026913960400191505060405180910390fd5b6111f485611306565b611245576040805162461bcd60e51b815260206004820152601d60248201527f416464726573733a2063616c6c20746f206e6f6e2d636f6e7472616374000000604482015290519081900360640190fd5b60006060866001600160a01b031685876040518082805190602001908083835b602083106112845780518252601f199092019160209182019101611265565b6001836020036101000a03801982511681845116808217855250505050505090500191505060006040518083038185875af1925050503d80600081146112e6576040519150601f19603f3d011682016040523d82523d6000602084013e6112eb565b606091505b50915091506112fb82828661130c565b979650505050505050565b3b151590565b6060831561131b5750816111a3565b82511561132b5782518084602001fd5b8160405162461bcd60e51b81526004018080602001828103825283818151815260200191508051906020019080838360005b8381101561137557818101518382015260200161135d565b50505050905090810190601f1680156113a25780820380516001836020036101000a031916815260200191505b509250505060405180910390fdfe50726573616c652e6465706f7369743a206465706f73697420616d6f756e7420697320626967676572207468616e206d6178206465706f73697420616d6f756e7450726573616c652e7769746864726177546f6b656e3a204e6f7420656e6f75676820746f6b656e20746f2077697468647261772e5361666542455032303a204245503230206f7065726174696f6e20646964206e6f7420737563636565644f776e61626c653a206e6577206f776e657220697320746865207a65726f206164647265737350726573616c652e757064617465536f6674436170416d6f756e743a20736f66742063617020616d6f756e7420696e76616c6964416464726573733a20696e73756666696369656e742062616c616e636520666f722063616c6c536166654d6174683a206d756c7469706c69636174696f6e206f766572666c6f7750726573616c652e6465706f7369743a206e6f7420656e6f75676820746f6b656e20746f207265776172644f776e61626c653a2063616c6c6572206973206e6f7420746865206f776e657250726573616c652e6465706f7369743a2050726573616c65206973206e6f742061637469766550726573616c652e75706461746548617264436170416d6f756e743a20736f66742063617020616d6f756e7420696e76616c6964a26469706673582212201b195b72f56c3694f1cbafa3c2a480758c0dee32327dc00bdac3b32e3c40b9a764736f6c634300060c003350726573616c653a20546f6b656e20616464726573732073686f756c64206e6f74206265207a65726f206164647265737350726573616c653a206275736420746f6b656e20616464726573732073686f756c64206e6f74206265207a65726f206164647265737350726573616c653a2050726573616c652073746172742074696d6520696e76616c696450726573616c653a206d61737465722077616c6c657420616464726573732073686f756c64206e6f74206265207a65726f2061646472657373",
  "immutableReferences": {},
  "source": "pragma solidity ^0.6.0;\r\n\r\nimport \"@openzeppelin/contracts/access/Ownable.sol\";\r\nimport \"@openzeppelin/contracts/math/SafeMath.sol\";\r\nimport \"@openzeppelin/contracts/utils/ReentrancyGuard.sol\";\r\n\r\nimport \"./libs/SafeBEP20.sol\";\r\nimport \"./libs/IBEP20.sol\";\r\n\r\ncontract Presale is Ownable, ReentrancyGuard {\r\n    using SafeMath for uint256;\r\n    using SafeBEP20 for IBEP20;\r\n    event Deposit(\r\n        address indexed depositUser, \r\n        uint256 amount\r\n    );\r\n    \r\n    event Withdraw(\r\n        address indexed user, \r\n        uint256 amount\r\n    );\r\n\r\n    struct UserDetail {\r\n        uint256 depositTime;\r\n        uint256 totalRewardAmount;\r\n        uint256 withdrawAmount;   \r\n        uint256 depositAmount;\r\n    }\r\n    \r\n    IBEP20 crssToken;\r\n    IBEP20 busd;\r\n    \r\n    mapping(address => UserDetail) public userDetail;\r\n    mapping(address => uint256) public deposits;\r\n\r\n    address[] public investors;\r\n\r\n    address public masterWallet;\r\n    \r\n    uint256 public totalDepositedBusdBalance;\r\n    uint256 public totalRewardAmount;\r\n    uint256 public totalWithdrawedAmount;\r\n\r\n    uint256 public constant oneMonth = 30 days;\r\n    uint256 public constant unlockPerMonth = 20;\r\n    uint256 public startTimestamp;\r\n    uint256 public softCapAmount = 50000000000000000000000; // 50k busd\r\n    uint256 public hardCapAmount = 200000000000000000000000; // 200k busd\r\n    uint256 public tokenPrice = 500000000000000000; //0.5 busd\r\n    // uint256 public hardCapPrice = 1000000000000000000; //1 busd\r\n    uint256 public maxBusdPerWallet = 1000000000000000000000; //1k busd\r\n\r\n    constructor(\r\n        IBEP20 _crssToken,\r\n        IBEP20 _busd,\r\n        address _masterWallet,\r\n        uint256 _startTimestamp\r\n    ) public {\r\n        require(address(_crssToken) != address(0), \"Presale: Token address should not be zero address\");\r\n        require(address(_busd) != address(0), \"Presale: busd token address should not be zero address\");\r\n        require(_masterWallet != address(0), \"Presale: master wallet address should not be zero address\");\r\n        require(_startTimestamp >= _getNow(), \"Presale: Presale start time invalid\");\r\n\r\n        crssToken = _crssToken;\r\n        busd = _busd;\r\n        masterWallet = _masterWallet;\r\n        startTimestamp = _startTimestamp;\r\n\r\n    }\r\n\r\n    function investorCount() public view returns (uint256) {\r\n        return investors.length;\r\n    }\r\n\r\n    function allInvestors() public view returns (address[] memory) {\r\n        return investors;\r\n    }\r\n    \r\n    function updateSoftCapAmount(uint256 _softCapAmount) public onlyOwner {\r\n        require(_softCapAmount > 0, \"Presale.updateSoftCapAmount: soft cap amount invalid\");\r\n        softCapAmount = _softCapAmount;\r\n    }\r\n\r\n    function updateHardCapAmount(uint256 _hardCapAmount) public onlyOwner {\r\n        require(_hardCapAmount > 0, \"Presale.updateHardCapAmount: soft cap amount invalid\");\r\n        hardCapAmount = _hardCapAmount;\r\n    }\r\n\r\n    function updateTokenPrice(uint256 _tokenPrice) public onlyOwner {\r\n        require(_tokenPrice > 0, \"Presale.updateSoftCapAmount: soft cap amount invalid\");\r\n        tokenPrice = _tokenPrice;\r\n    }\r\n\r\n    function deposit(uint256 _amount) public payable nonReentrant {\r\n        require(_getNow() >= startTimestamp, \"Presale.deposit: Presale is not active\");\r\n        require(totalDepositedBusdBalance + _amount <= hardCapAmount, \"deposit is above hardcap limit\");\r\n\r\n        UserDetail storage user = userDetail[msg.sender];\r\n\r\n        require(user.depositAmount + _amount <= maxBusdPerWallet, \"Presale.deposit: deposit amount is bigger than max deposit amount\");\r\n\r\n        uint256 rewardTokenAmount = _amount.mul(1e18).div(tokenPrice);\r\n        require(crssToken.balanceOf(address(this)).add(totalWithdrawedAmount).sub(totalRewardAmount) >= rewardTokenAmount, \"Presale.deposit: not enough token to reward\" );\r\n        if(user.depositAmount == 0) {\r\n            investors.push(msg.sender);\r\n        }\r\n        user.depositTime = _getNow();\r\n        user.depositAmount = user.depositAmount + _amount;\r\n        user.totalRewardAmount = user.totalRewardAmount.add(rewardTokenAmount);\r\n        totalRewardAmount = totalRewardAmount.add(rewardTokenAmount);\r\n        totalDepositedBusdBalance = totalDepositedBusdBalance + _amount;\r\n\r\n        busd.safeTransferFrom(msg.sender, masterWallet, _amount);\r\n        \r\n        emit Deposit(msg.sender, _amount);\r\n    }\r\n\r\n    function withdrawToken(uint256 _amount) public {\r\n        uint256 unlocked = unlockedToken(msg.sender);\r\n        require(unlocked >= _amount, \"Presale.withdrawToken: Not enough token to withdraw.\");\r\n\r\n        UserDetail storage user = userDetail[msg.sender];\r\n\r\n        user.withdrawAmount = user.withdrawAmount.add(_amount);\r\n        totalWithdrawedAmount = totalWithdrawedAmount.add(_amount);\r\n\r\n        crssToken.transfer(msg.sender, _amount);\r\n        \r\n        emit Withdraw(msg.sender, _amount);\r\n    }\r\n\r\n    function unlockedToken(address _user) public view returns (uint256) {\r\n        UserDetail storage user = userDetail[_user];\r\n\r\n        if(_getNow() <= user.depositTime) {\r\n            return 0;\r\n        }\r\n        else {\r\n            uint256 timePassed = _getNow().sub(user.depositTime);\r\n            uint256 monthPassed = timePassed.div(oneMonth);\r\n            uint256 unlocked;\r\n            if(monthPassed >= 5){\r\n                unlocked = user.totalRewardAmount;\r\n            } else {\r\n                unlocked = user.totalRewardAmount.mul(unlockPerMonth.mul(monthPassed)).div(100);\r\n            }\r\n            return unlocked.sub(user.withdrawAmount);\r\n        }\r\n    }\r\n    \r\n    function _getNow() internal virtual view returns (uint256) {\r\n        return block.timestamp;\r\n    }\r\n}",
  "sourcePath": "F:/Development/CrossWise - blockchain/crosswise-farm/contracts/PreSale.sol",
  "compiler": {
    "name": "solc",
    "version": "0.6.12+commit.27d51765.Emscripten.clang"
  },
  "schemaVersion": "3.4.1",
  "updatedAt": "2021-08-03T14:29:37.516Z",
  "networkType": "ethereum",
  "devdoc": {
    "kind": "dev",
    "methods": {
      "owner()": {
        "details": "Returns the address of the current owner."
      },
      "renounceOwnership()": {
        "details": "Leaves the contract without owner. It will not be possible to call `onlyOwner` functions anymore. Can only be called by the current owner. NOTE: Renouncing ownership will leave the contract without an owner, thereby removing any functionality that is only available to the owner."
      },
      "transferOwnership(address)": {
        "details": "Transfers ownership of the contract to a new account (`newOwner`). Can only be called by the current owner."
      }
    },
    "version": 1
  },
  "userdoc": {
    "kind": "user",
    "methods": {},
    "version": 1
  }
}